{
  "_format": "hh-sol-artifact-1",
  "contractName": "GigEscrow",
  "sourceName": "contracts/GigEscrow.sol",
  "abi": [
    {
      "inputs": [
        {
          "internalType": "address",
          "name": "_srtToken",
          "type": "address"
        },
        {
          "internalType": "address",
          "name": "_arbitrator",
          "type": "address"
        },
        {
          "internalType": "bytes",
          "name": "_arbitratorExtraData",
          "type": "bytes"
        }
      ],
      "stateMutability": "nonpayable",
      "type": "constructor"
    },
    {
      "inputs": [
        {
          "internalType": "address",
          "name": "owner",
          "type": "address"
        }
      ],
      "name": "OwnableInvalidOwner",
      "type": "error"
    },
    {
      "inputs": [
        {
          "internalType": "address",
          "name": "account",
          "type": "address"
        }
      ],
      "name": "OwnableUnauthorizedAccount",
      "type": "error"
    },
    {
      "inputs": [],
      "name": "ReentrancyGuardReentrantCall",
      "type": "error"
    },
    {
      "anonymous": false,
      "inputs": [
        {
          "indexed": true,
          "internalType": "string",
          "name": "gigId",
          "type": "string"
        },
        {
          "indexed": false,
          "internalType": "string",
          "name": "proposalIpfsUri",
          "type": "string"
        }
      ],
      "name": "AIProposalSet",
      "type": "event"
    },
    {
      "anonymous": false,
      "inputs": [
        {
          "indexed": true,
          "internalType": "string",
          "name": "gigId",
          "type": "string"
        },
        {
          "indexed": true,
          "internalType": "address",
          "name": "voter",
          "type": "address"
        },
        {
          "indexed": false,
          "internalType": "bool",
          "name": "accepted",
          "type": "bool"
        }
      ],
      "name": "AIVoteCast",
      "type": "event"
    },
    {
      "anonymous": false,
      "inputs": [
        {
          "indexed": true,
          "internalType": "address",
          "name": "_arbitrator",
          "type": "address"
        },
        {
          "indexed": true,
          "internalType": "uint256",
          "name": "_disputeID",
          "type": "uint256"
        },
        {
          "indexed": false,
          "internalType": "uint256",
          "name": "_metaEvidenceID",
          "type": "uint256"
        },
        {
          "indexed": false,
          "internalType": "uint256",
          "name": "_evidenceGroupID",
          "type": "uint256"
        }
      ],
      "name": "Dispute",
      "type": "event"
    },
    {
      "anonymous": false,
      "inputs": [
        {
          "indexed": true,
          "internalType": "string",
          "name": "gigId",
          "type": "string"
        },
        {
          "indexed": false,
          "internalType": "string",
          "name": "reason",
          "type": "string"
        }
      ],
      "name": "DisputeEscalatedHuman",
      "type": "event"
    },
    {
      "anonymous": false,
      "inputs": [
        {
          "indexed": true,
          "internalType": "string",
          "name": "gigId",
          "type": "string"
        },
        {
          "indexed": false,
          "internalType": "uint256",
          "name": "klerosDisputeId",
          "type": "uint256"
        },
        {
          "indexed": false,
          "internalType": "uint256",
          "name": "arbitrationCostPaid",
          "type": "uint256"
        }
      ],
      "name": "DisputeEscalatedKleros",
      "type": "event"
    },
    {
      "anonymous": false,
      "inputs": [
        {
          "indexed": true,
          "internalType": "string",
          "name": "gigId",
          "type": "string"
        },
        {
          "indexed": true,
          "internalType": "address",
          "name": "raisedBy",
          "type": "address"
        }
      ],
      "name": "DisputeRaisedAI",
      "type": "event"
    },
    {
      "anonymous": false,
      "inputs": [
        {
          "indexed": true,
          "internalType": "address",
          "name": "_arbitrator",
          "type": "address"
        },
        {
          "indexed": true,
          "internalType": "uint256",
          "name": "_evidenceGroupID",
          "type": "uint256"
        },
        {
          "indexed": true,
          "internalType": "address",
          "name": "_party",
          "type": "address"
        },
        {
          "indexed": false,
          "internalType": "string",
          "name": "_evidence",
          "type": "string"
        }
      ],
      "name": "Evidence",
      "type": "event"
    },
    {
      "anonymous": false,
      "inputs": [
        {
          "indexed": true,
          "internalType": "string",
          "name": "gigId",
          "type": "string"
        },
        {
          "indexed": true,
          "internalType": "address",
          "name": "party",
          "type": "address"
        },
        {
          "indexed": false,
          "internalType": "string",
          "name": "evidenceUri",
          "type": "string"
        }
      ],
      "name": "EvidenceSubmitted",
      "type": "event"
    },
    {
      "anonymous": false,
      "inputs": [
        {
          "indexed": true,
          "internalType": "string",
          "name": "gigId",
          "type": "string"
        },
        {
          "indexed": true,
          "internalType": "address",
          "name": "freelancer",
          "type": "address"
        }
      ],
      "name": "GigAccepted",
      "type": "event"
    },
    {
      "anonymous": false,
      "inputs": [
        {
          "indexed": true,
          "internalType": "string",
          "name": "gigId",
          "type": "string"
        },
        {
          "indexed": true,
          "internalType": "address",
          "name": "client",
          "type": "address"
        },
        {
          "indexed": false,
          "internalType": "uint256",
          "name": "amount",
          "type": "uint256"
        },
        {
          "indexed": false,
          "internalType": "uint256",
          "name": "deadline",
          "type": "uint256"
        },
        {
          "indexed": false,
          "internalType": "uint256",
          "name": "gigNumber",
          "type": "uint256"
        }
      ],
      "name": "GigCreated",
      "type": "event"
    },
    {
      "anonymous": false,
      "inputs": [
        {
          "indexed": true,
          "internalType": "string",
          "name": "gigId",
          "type": "string"
        },
        {
          "indexed": false,
          "internalType": "bool",
          "name": "paidToFreelancer",
          "type": "bool"
        },
        {
          "indexed": false,
          "internalType": "uint8",
          "name": "tier",
          "type": "uint8"
        }
      ],
      "name": "GigResolved",
      "type": "event"
    },
    {
      "anonymous": false,
      "inputs": [
        {
          "indexed": true,
          "internalType": "uint256",
          "name": "_metaEvidenceID",
          "type": "uint256"
        },
        {
          "indexed": false,
          "internalType": "string",
          "name": "_evidence",
          "type": "string"
        }
      ],
      "name": "MetaEvidence",
      "type": "event"
    },
    {
      "anonymous": false,
      "inputs": [
        {
          "indexed": true,
          "internalType": "address",
          "name": "previousOwner",
          "type": "address"
        },
        {
          "indexed": true,
          "internalType": "address",
          "name": "newOwner",
          "type": "address"
        }
      ],
      "name": "OwnershipTransferred",
      "type": "event"
    },
    {
      "anonymous": false,
      "inputs": [
        {
          "indexed": true,
          "internalType": "string",
          "name": "gigId",
          "type": "string"
        },
        {
          "indexed": true,
          "internalType": "address",
          "name": "to",
          "type": "address"
        },
        {
          "indexed": false,
          "internalType": "uint256",
          "name": "amount",
          "type": "uint256"
        },
        {
          "indexed": false,
          "internalType": "uint256",
          "name": "fee",
          "type": "uint256"
        }
      ],
      "name": "PaymentReleased",
      "type": "event"
    },
    {
      "anonymous": false,
      "inputs": [
        {
          "indexed": true,
          "internalType": "string",
          "name": "gigId",
          "type": "string"
        },
        {
          "indexed": false,
          "internalType": "string",
          "name": "ipfsHash",
          "type": "string"
        }
      ],
      "name": "ProofSubmitted",
      "type": "event"
    },
    {
      "anonymous": false,
      "inputs": [
        {
          "indexed": true,
          "internalType": "address",
          "name": "_arbitrator",
          "type": "address"
        },
        {
          "indexed": true,
          "internalType": "uint256",
          "name": "_disputeID",
          "type": "uint256"
        },
        {
          "indexed": false,
          "internalType": "uint256",
          "name": "_ruling",
          "type": "uint256"
        }
      ],
      "name": "Ruling",
      "type": "event"
    },
    {
      "anonymous": false,
      "inputs": [
        {
          "indexed": true,
          "internalType": "string",
          "name": "gigId",
          "type": "string"
        }
      ],
      "name": "WorkApproved",
      "type": "event"
    },
    {
      "inputs": [],
      "name": "FEE_DENOMINATOR",
      "outputs": [
        {
          "internalType": "uint256",
          "name": "",
          "type": "uint256"
        }
      ],
      "stateMutability": "view",
      "type": "function"
    },
    {
      "inputs": [
        {
          "internalType": "string",
          "name": "_gigId",
          "type": "string"
        }
      ],
      "name": "acceptGig",
      "outputs": [],
      "stateMutability": "nonpayable",
      "type": "function"
    },
    {
      "inputs": [
        {
          "internalType": "string",
          "name": "_gigId",
          "type": "string"
        }
      ],
      "name": "approveWork",
      "outputs": [],
      "stateMutability": "nonpayable",
      "type": "function"
    },
    {
      "inputs": [],
      "name": "arbitrator",
      "outputs": [
        {
          "internalType": "contract IArbitrator",
          "name": "",
          "type": "address"
        }
      ],
      "stateMutability": "view",
      "type": "function"
    },
    {
      "inputs": [],
      "name": "arbitratorExtraData",
      "outputs": [
        {
          "internalType": "bytes",
          "name": "",
          "type": "bytes"
        }
      ],
      "stateMutability": "view",
      "type": "function"
    },
    {
      "inputs": [
        {
          "internalType": "string",
          "name": "_gigId",
          "type": "string"
        },
        {
          "internalType": "uint256",
          "name": "_amount",
          "type": "uint256"
        },
        {
          "internalType": "uint256",
          "name": "_deadline",
          "type": "uint256"
        },
        {
          "internalType": "string",
          "name": "_metaEvidenceUri",
          "type": "string"
        }
      ],
      "name": "createGig",
      "outputs": [],
      "stateMutability": "nonpayable",
      "type": "function"
    },
    {
      "inputs": [
        {
          "internalType": "uint256",
          "name": "",
          "type": "uint256"
        }
      ],
      "name": "disputeIdToGigHash",
      "outputs": [
        {
          "internalType": "bytes32",
          "name": "",
          "type": "bytes32"
        }
      ],
      "stateMutability": "view",
      "type": "function"
    },
    {
      "inputs": [
        {
          "internalType": "string",
          "name": "_gigId",
          "type": "string"
        }
      ],
      "name": "escalateToKleros",
      "outputs": [],
      "stateMutability": "payable",
      "type": "function"
    },
    {
      "inputs": [],
      "name": "feeCollector",
      "outputs": [
        {
          "internalType": "address",
          "name": "",
          "type": "address"
        }
      ],
      "stateMutability": "view",
      "type": "function"
    },
    {
      "inputs": [],
      "name": "getArbitrationCost",
      "outputs": [
        {
          "internalType": "uint256",
          "name": "",
          "type": "uint256"
        }
      ],
      "stateMutability": "view",
      "type": "function"
    },
    {
      "inputs": [
        {
          "internalType": "string",
          "name": "_gigId",
          "type": "string"
        }
      ],
      "name": "getGig",
      "outputs": [
        {
          "components": [
            {
              "internalType": "string",
              "name": "gigId",
              "type": "string"
            },
            {
              "internalType": "uint256",
              "name": "gigNumber",
              "type": "uint256"
            },
            {
              "internalType": "address",
              "name": "client",
              "type": "address"
            },
            {
              "internalType": "address",
              "name": "freelancer",
              "type": "address"
            },
            {
              "internalType": "uint256",
              "name": "amount",
              "type": "uint256"
            },
            {
              "internalType": "enum GigEscrow.GigStatus",
              "name": "status",
              "type": "uint8"
            },
            {
              "internalType": "uint256",
              "name": "createdAt",
              "type": "uint256"
            },
            {
              "internalType": "uint256",
              "name": "deadline",
              "type": "uint256"
            },
            {
              "internalType": "string",
              "name": "proofIpfsHash",
              "type": "string"
            },
            {
              "internalType": "string",
              "name": "metaEvidenceUri",
              "type": "string"
            },
            {
              "internalType": "string",
              "name": "aiProposalUri",
              "type": "string"
            },
            {
              "internalType": "bool",
              "name": "clientAcceptsAI",
              "type": "bool"
            },
            {
              "internalType": "bool",
              "name": "freelancerAcceptsAI",
              "type": "bool"
            },
            {
              "internalType": "uint256",
              "name": "metaEvidenceID",
              "type": "uint256"
            },
            {
              "internalType": "uint256",
              "name": "klerosDisputeId",
              "type": "uint256"
            },
            {
              "internalType": "bool",
              "name": "hasKlerosDispute",
              "type": "bool"
            },
            {
              "internalType": "uint256",
              "name": "klerosRuling",
              "type": "uint256"
            }
          ],
          "internalType": "struct GigEscrow.Gig",
          "name": "",
          "type": "tuple"
        }
      ],
      "stateMutability": "view",
      "type": "function"
    },
    {
      "inputs": [],
      "name": "gigCounter",
      "outputs": [
        {
          "internalType": "uint256",
          "name": "",
          "type": "uint256"
        }
      ],
      "stateMutability": "view",
      "type": "function"
    },
    {
      "inputs": [
        {
          "internalType": "bytes32",
          "name": "",
          "type": "bytes32"
        }
      ],
      "name": "gigs",
      "outputs": [
        {
          "internalType": "string",
          "name": "gigId",
          "type": "string"
        },
        {
          "internalType": "uint256",
          "name": "gigNumber",
          "type": "uint256"
        },
        {
          "internalType": "address",
          "name": "client",
          "type": "address"
        },
        {
          "internalType": "address",
          "name": "freelancer",
          "type": "address"
        },
        {
          "internalType": "uint256",
          "name": "amount",
          "type": "uint256"
        },
        {
          "internalType": "enum GigEscrow.GigStatus",
          "name": "status",
          "type": "uint8"
        },
        {
          "internalType": "uint256",
          "name": "createdAt",
          "type": "uint256"
        },
        {
          "internalType": "uint256",
          "name": "deadline",
          "type": "uint256"
        },
        {
          "internalType": "string",
          "name": "proofIpfsHash",
          "type": "string"
        },
        {
          "internalType": "string",
          "name": "metaEvidenceUri",
          "type": "string"
        },
        {
          "internalType": "string",
          "name": "aiProposalUri",
          "type": "string"
        },
        {
          "internalType": "bool",
          "name": "clientAcceptsAI",
          "type": "bool"
        },
        {
          "internalType": "bool",
          "name": "freelancerAcceptsAI",
          "type": "bool"
        },
        {
          "internalType": "uint256",
          "name": "metaEvidenceID",
          "type": "uint256"
        },
        {
          "internalType": "uint256",
          "name": "klerosDisputeId",
          "type": "uint256"
        },
        {
          "internalType": "bool",
          "name": "hasKlerosDispute",
          "type": "bool"
        },
        {
          "internalType": "uint256",
          "name": "klerosRuling",
          "type": "uint256"
        }
      ],
      "stateMutability": "view",
      "type": "function"
    },
    {
      "inputs": [
        {
          "internalType": "string",
          "name": "_gigId",
          "type": "string"
        },
        {
          "internalType": "bool",
          "name": "_releasePayment",
          "type": "bool"
        }
      ],
      "name": "humanFinalArbitration",
      "outputs": [],
      "stateMutability": "nonpayable",
      "type": "function"
    },
    {
      "inputs": [],
      "name": "metaEvidenceCount",
      "outputs": [
        {
          "internalType": "uint256",
          "name": "",
          "type": "uint256"
        }
      ],
      "stateMutability": "view",
      "type": "function"
    },
    {
      "inputs": [],
      "name": "owner",
      "outputs": [
        {
          "internalType": "address",
          "name": "",
          "type": "address"
        }
      ],
      "stateMutability": "view",
      "type": "function"
    },
    {
      "inputs": [],
      "name": "platformFeePercent",
      "outputs": [
        {
          "internalType": "uint256",
          "name": "",
          "type": "uint256"
        }
      ],
      "stateMutability": "view",
      "type": "function"
    },
    {
      "inputs": [
        {
          "internalType": "string",
          "name": "_gigId",
          "type": "string"
        }
      ],
      "name": "raiseDisputeAI",
      "outputs": [],
      "stateMutability": "nonpayable",
      "type": "function"
    },
    {
      "inputs": [],
      "name": "renounceOwnership",
      "outputs": [],
      "stateMutability": "nonpayable",
      "type": "function"
    },
    {
      "inputs": [
        {
          "internalType": "uint256",
          "name": "_disputeId",
          "type": "uint256"
        },
        {
          "internalType": "uint256",
          "name": "_ruling",
          "type": "uint256"
        }
      ],
      "name": "rule",
      "outputs": [],
      "stateMutability": "nonpayable",
      "type": "function"
    },
    {
      "inputs": [
        {
          "internalType": "string",
          "name": "_gigId",
          "type": "string"
        },
        {
          "internalType": "string",
          "name": "_proposalUri",
          "type": "string"
        }
      ],
      "name": "setAIProposal",
      "outputs": [],
      "stateMutability": "nonpayable",
      "type": "function"
    },
    {
      "inputs": [
        {
          "internalType": "address",
          "name": "_newArbitrator",
          "type": "address"
        },
        {
          "internalType": "bytes",
          "name": "_newExtraData",
          "type": "bytes"
        }
      ],
      "name": "setArbitrator",
      "outputs": [],
      "stateMutability": "nonpayable",
      "type": "function"
    },
    {
      "inputs": [
        {
          "internalType": "address",
          "name": "_newCollector",
          "type": "address"
        }
      ],
      "name": "setFeeCollector",
      "outputs": [],
      "stateMutability": "nonpayable",
      "type": "function"
    },
    {
      "inputs": [
        {
          "internalType": "uint256",
          "name": "_newFeePercent",
          "type": "uint256"
        }
      ],
      "name": "setPlatformFee",
      "outputs": [],
      "stateMutability": "nonpayable",
      "type": "function"
    },
    {
      "inputs": [],
      "name": "srtToken",
      "outputs": [
        {
          "internalType": "contract IERC20",
          "name": "",
          "type": "address"
        }
      ],
      "stateMutability": "view",
      "type": "function"
    },
    {
      "inputs": [
        {
          "internalType": "string",
          "name": "_gigId",
          "type": "string"
        },
        {
          "internalType": "string",
          "name": "_evidenceUri",
          "type": "string"
        }
      ],
      "name": "submitEvidenceToKleros",
      "outputs": [],
      "stateMutability": "nonpayable",
      "type": "function"
    },
    {
      "inputs": [
        {
          "internalType": "string",
          "name": "_gigId",
          "type": "string"
        },
        {
          "internalType": "string",
          "name": "_ipfsHash",
          "type": "string"
        }
      ],
      "name": "submitProof",
      "outputs": [],
      "stateMutability": "nonpayable",
      "type": "function"
    },
    {
      "inputs": [
        {
          "internalType": "address",
          "name": "newOwner",
          "type": "address"
        }
      ],
      "name": "transferOwnership",
      "outputs": [],
      "stateMutability": "nonpayable",
      "type": "function"
    },
    {
      "inputs": [
        {
          "internalType": "string",
          "name": "_gigId",
          "type": "string"
        },
        {
          "internalType": "bool",
          "name": "_accept",
          "type": "bool"
        }
      ],
      "name": "voteOnAIProposal",
      "outputs": [],
      "stateMutability": "nonpayable",
      "type": "function"
    },
    {
      "inputs": [],
      "name": "withdrawETH",
      "outputs": [],
      "stateMutability": "nonpayable",
      "type": "function"
    },
    {
      "stateMutability": "payable",
      "type": "receive"
    }
  ],
  "bytecode": "0x6040608081523462000365576200385a803803806200001e816200036a565b92833981019060608183031262000365576200003a8162000390565b916020916200004b83820162000390565b938582015160018060401b039283821162000365570192601f90808286011215620003655784518481116200029057601f19956200008f828501881689016200036a565b928284528883830101116200036557879060005b8381106200035057505060009183010152600192836000553315620003385783546001600160a01b03198082163390811787558b51919a91936001600160a01b039384929083167f8be0079c531659141344cd1fd0a4f28419497f9722a3daafe3b4186f6b6457e0600080a360c860055516928315620002f8575016908115620002a6578860025416176002558760035416176003558051938411620002905760049586548481811c9116801562000285575b82821014620002705783811162000225575b5080928511600114620001bc575083945090839291600094620001b0575b50501b916000199060031b1c19161790555b33906006541617600655516134b49081620003a68239f35b01519250388062000186565b9294849081168760005284600020946000905b888383106200020a5750505010620001f0575b505050811b01905562000198565b015160001960f88460031b161c19169055388080620001e2565b858701518855909601959485019487935090810190620001cf565b87600052816000208480880160051c82019284891062000266575b0160051c019085905b8281106200025957505062000168565b6000815501859062000249565b9250819262000240565b602288634e487b7160e01b6000525260246000fd5b90607f169062000156565b634e487b7160e01b600052604160045260246000fd5b895162461bcd60e51b815260048101899052602560248201527f476967457363726f773a20496e76616c69642061726269747261746f72206164604482015264647265737360d81b6064820152608490fd5b6064908a62461bcd60e51b825280600483015260248201527f476967457363726f773a20496e76616c696420746f6b656e20616464726573736044820152fd5b8851631e4fbdf760e01b815260006004820152602490fd5b818101830151858201840152899201620000a3565b600080fd5b6040519190601f01601f191682016001600160401b038111838210176200029057604052565b51906001600160a01b0382168203620003655756fe60a080604052600436101561001d575b50361561001b57600080fd5b005b60003560e01c9081630c7ac7b614612a57575080630ea7c0ea1461289357806312e8e2c314612825578063311a6c56146125375780634a99c489146123b957806350c0467b1461223d5780635af798071461221f578063605c967e14611efc5780636302256014611e6d57806369e5260914611c6e5780636cc6cde114611c45578063709c6790146113d0578063715018a6146113735780637384e7e814610f7f57806388a1e8da14610d805780638c639a8514610d625780638da5cb5b14610d39578063a42dce8014610cac578063b9895fa014610ae4578063c1403fd914610ac6578063c415b95c14610a9d578063c7cbf61014610950578063d73792a914610933578063de4e00f9146107d4578063df2474f0146107ab578063df9deed8146105ed578063e086e5ec1461056c578063e4223fba1461022e578063f2fde38b146101a55763fb9bfa3514610174573861000f565b346101a05760203660031901126101a057600435600052600a6020526020604060002054604051908152f35b600080fd5b346101a05760203660031901126101a0576101be612c02565b6101c6612e2f565b6001600160a01b0390811690811561021557600154826001600160601b0360a01b821617600155167f8be0079c531659141344cd1fd0a4f28419497f9722a3daafe3b4186f6b6457e0600080a3005b604051631e4fbdf760e01b815260006004820152602490fd5b346101a05760203660031901126101a0576004356001600160401b0381116101a05761025e903690600401612c33565b600061020060405161026f81612b62565b606081528260208201528260408201528260608201528260808201528260a08201528260c08201528260e08201526060610100820152606061012082015260606101408201528261016082015282610180820152826101a0820152826101c0820152826101e082015201526020815191012080600052600960205261030560018060a01b03600260406000200154161515612f2e565b600052600960205260406000206040519061031f82612b62565b604051610337816103308185612d8c565b0382612b99565b82526001810154602083015260028101546001600160a01b039081166040840152600382015416606083015260048101546080830152600581015460ff1690600882101561055657600f9160a0840152600681015460c0840152600781015460e08401526040516103af816103308160088601612d8c565b6101008401526040516103c9816103308160098601612d8c565b6101208401526040516103e38161033081600a8601612d8c565b61014084015260ff600b820154818116151561016086015260081c161515610180840152600c8101546101a0840152600d8101546101c084015260ff600e8201541615156101e0840152015461020082015260405180916020825261020061050961045c83516102206020870152610240860190612bdd565b6020840151604086015260018060a01b03604085015116606086015260018060a01b036060850151166080860152608084015160a08601526104a660a085015160c0870190612e22565b60c084015160e086015260e08401516101008601526104f26104dc61010086015192601f199384898303016101208a0152612bdd565b6101208601518388830301610140890152612bdd565b906101408501519086830301610160870152612bdd565b91610160810151151561018085015261018081015115156101a08501526101a08101516101c08501526101c08101516101e08501526101e081015115158285015201516102208301520390f35b634e487b7160e01b600052602160045260246000fd5b346101a05760003660031901126101a057610585612e2f565b600080808060018060a01b036001541647905af16105a161303f565b50156105a957005b606460405162461bcd60e51b815260206004820152602060248201527f476967457363726f773a20455448207769746864726177616c206661696c65646044820152fd5b346101a0576105fb36612c7a565b8151916020928382019081206000526009845260018060a01b039061062b82600260406000200154161515612f2e565b825181206000526009855261065760406000208380600283015416331491821561079a575b5050612f7a565b825190206000526009845260406000209060ff60058301541660088110156105565760040361075757835115610712577f3470685ee50172ecb9caa3c298b932a1da32571843ed1474dfe6e7b02088e0ab9261070d92600c6106f99360035416910154604051918883527fdccf2f8b2cc26eafcd61905cba744cff4b81d14740725f6376390dc6298a6a3c3393806106f18c82018c612bdd565b0390a4612eeb565b926040519182918683523396830190612bdd565b0390a3005b60405162461bcd60e51b815260048101869052601f60248201527f476967457363726f773a20496e76616c69642065766964656e636520555249006044820152606490fd5b6064856040519062461bcd60e51b825280600483015260248201527f476967457363726f773a204e6f7420696e204b6c65726f7320646973707574656044820152fd5b600391925001541633148388610650565b346101a05760003660031901126101a0576002546040516001600160a01b039091168152602090f35b346101a0576020806003193601126101a0576004356001600160401b0381116101a057610805903690600401612c33565b9081518183019081206000526009825261085c60018060a01b0361083481600260406000200154161515612f2e565b8451832060005260098452604060002090806002830154163314918215610922575050612f7a565b825190206000526009815260056040600020019081549060ff82166008811015610556576002036108c3575060ff19166003179055339061089c90612eeb565b7fc23983603dfebb0b03418f866803ef207ad4ebc0863e08fe05d510c12d5acfc1600080a3005b6084906040519062461bcd60e51b82526004820152603260248201527f476967457363726f773a2043616e206f6e6c79206469737075746520616674656044820152713910383937b7b31039bab136b4b9b9b4b7b760711b6064820152fd5b600391925001541633148580610650565b346101a05760003660031901126101a05760206040516127108152f35b346101a05761095e36612cc0565b610966612e2f565b61096e612f0b565b8151916020928382019081206000526009845261099c60018060a01b03600260406000200154161515612f2e565b8151902060005260098352600560406000200180549260ff8416600881101561055657600503610a3f579160008051602061343f8339815191529391604093600014610a1657805460ff19166006179055610a0091506109fb816130f7565b612eeb565b92600382519160018352820152a25b6001600055005b6007610a2c9360ff19161790556109fb8161332b565b92600382519160008352820152a2610a0f565b60405162461bcd60e51b815260048101869052603060248201527f476967457363726f773a204f6e6c792063616c6c61626c6520696e204449535060448201526f555445445f48554d414e20737461746560801b6064820152608490fd5b346101a05760003660031901126101a0576006546040516001600160a01b039091168152602090f35b346101a05760003660031901126101a0576020600854604051908152f35b346101a05760203660031901126101a0576004356000526009602052604060002060405180610b138184612d8c565b03610b1e9082612b99565b600182015491600160a01b600190038060028301541690600383015416600483015494600584015460ff169060068501549060078601549060405191828060088a0190610b6a91612d8c565b03610b759084612b99565b6040519384610b878160098c01612d8c565b03610b929086612b99565b6040519586610ba481600a8d01612d8c565b03610baf9088612b99565b600b8a01549b600c8b015498600d8c01549a600e8d015460ff169c600f01549d6040518060805261022080915260805101610be991612bdd565b966080516020015260805160400152608051606001526080516080015260805160a001610c1591612e22565b60805160c0015260805160e00152608051808203906101000152610c3891612bdd565b608051808203906101200152610c4d91612bdd565b608051808203906101400152610c6291612bdd565b9460ff81161515608051610160015260081c60ff16151560805161018001526080516101a001526080516101c0015215156080516101e00152608051610200015260805180910390f35b346101a05760203660031901126101a057610cc5612c02565b610ccd612e2f565b6001600160a01b03168015610cf4576001600160601b0360a01b6006541617600655600080f35b60405162461bcd60e51b815260206004820152601a60248201527f476967457363726f773a20496e76616c696420616464726573730000000000006044820152606490fd5b346101a05760003660031901126101a0576001546040516001600160a01b039091168152602090f35b346101a05760003660031901126101a0576020600554604051908152f35b346101a057610d8e36612c7a565b90610d97612e2f565b80519160209283830190812060005260098452610dc560018060a01b03600260406000200154161515612f2e565b8251902060005260098352604060002060ff6005820154166008811015610556576003610df29114612fdb565b815115610f3a57600a0181516001600160401b038111610f2457610e2081610e1a8454612b28565b84612eaf565b84601f8211600114610e9a5791817f070a50f8e55a8c9c172db2ad133ed03f5de1d0abf24ba2c13cd4e6d2f609c3709592610e7594600091610e8f575b508160011b916000199060031b1c1916179055612eeb565b92610e8a604051928284938452830190612bdd565b0390a2005b905085015188610e5d565b601f1982169083600052866000209160005b88828210610f0e57505092610e759492600192827f070a50f8e55a8c9c172db2ad133ed03f5de1d0abf24ba2c13cd4e6d2f609c370999610610ef5575b5050811b019055612eeb565b87015160001960f88460031b161c191690558880610ee9565b600184958293958a015181550194019201610eac565b634e487b7160e01b600052604160045260246000fd5b60405162461bcd60e51b815260048101859052601f60248201527f476967457363726f773a20496e76616c69642070726f706f73616c20555249006044820152606490fd5b6020806003193601126101a0576004356001600160401b0381116101a057610fab903690600401612c33565b610fb3612f0b565b80518282019081206000526009835260018060a01b0391610fdf83600260406000200154161515612f2e565b805182206000526009845261100a604060002084806002830154163314918215611362575050612f7a565b80518220600052600984526040600020600581019360ff85541660088110156105565760030361130857600e820160ff8154166112b25781600354166040519663f7434ea960e01b885288600489015288888061106960248201612cfa565b0381855afa97881561121a57600098611283575b508734106112265788604051809363c13517e160e01b82526002600483015260406024830152818b816110b260448201612cfa565b03925af196871561121a5789926000986111e1575b506040600c61115d968996600a8c97859b9760047f74baab670a4015ab2f1b467c5252a96141a2573f2908e58a92081e80d3cfde3d987f2cfc3345e19fe1f34737a51b82b14a1b4b21d6ef964534be0c4b2a7aa6cff4729f519020948b600d8c015560ff199060018282541617905582541617905588600052528360002055600354169301548151908082528c820152a3612eeb565b9281519081528486820152a2803411611177576001600055005b60008080611186819434613032565b335af161119161303f565b501561119d5780610a0f565b6064906040519062461bcd60e51b82526004820152601c60248201527f476967457363726f773a2045544820726566756e64206661696c6564000000006044820152fd5b809692979498508391933d8311611213575b6111fd8183612b99565b810103126101a0579351959194889160406110c7565b503d6111f3565b6040513d6000823e3d90fd5b60405162461bcd60e51b8152600481018a9052602f60248201527f476967457363726f773a20496e73756666696369656e742045544820666f722060448201526e6172626974726174696f6e2066656560881b6064820152608490fd5b9097508881813d83116112ab575b61129b8183612b99565b810103126101a05751968961107d565b503d611291565b60405162461bcd60e51b815260048101889052602860248201527f476967457363726f773a204b6c65726f73206469737075746520616c726561646044820152671e481c985a5cd95960c21b6064820152608490fd5b60405162461bcd60e51b815260048101879052602c60248201527f476967457363726f773a204d75737420626520696e204149206469737075746560448201526b20746f20657363616c61746560a01b6064820152608490fd5b600391925001541633148487610650565b346101a05760003660031901126101a05761138c612e2f565b600180546001600160a01b031981169091556000906001600160a01b03167f8be0079c531659141344cd1fd0a4f28419497f9722a3daafe3b4186f6b6457e08280a3005b346101a05760803660031901126101a0576004356001600160401b0381116101a057611400903690600401612c33565b60649081356001600160401b0381116101a057611421903690600401612c33565b9061142a612f0b565b8051928360208301209315611c035760243515611bc1576000848152600960205260409020600201546001600160a01b0316611b7f57825115611b2f576000602060018060a01b036002541683604051809481936323b872dd60e01b835233600484015230602484015260243560448401525af190811561121a57600091611b00575b5015611aa057506007546114c081612e73565b6007556114ce600854612e73565b9283600855604051946114e086612b62565b838652846020870152336040870152600060608701526024356080870152600060a08701524260c087015260443560e087015260405161151f81612b7e565b600081526101008701528161012087015260405161153c81612b7e565b6000815261014087015260006101608701526000610180870152826101a087015260006101c087015260006101e087015260006102008701526000526009602052604060002085518051906001600160401b038211610f245781906115ab826115a58654612b28565b86612eaf565b602090601f8311600114611a3457600092611a29575b50508160011b916000199060031b1c19161781555b6020860151600182015560408601516002820180546001600160a01b039283166001600160a01b03199182161790915560608801516003840180549190931691161790556080860151600482015560a0860151600881101561055657600582019060ff8019835416911617905560c0860151600682015560e086015160078201556101008601518051906001600160401b038211610f2457819061168a826116816008870154612b28565b60088701612eaf565b602090601f83116001146119b7576000926119ac575b50508160011b916000199060031b1c19161760088201555b6101208601518051906001600160401b038211610f245781906116eb826116e26009870154612b28565b60098701612eaf565b602090601f831160011461193a5760009261192f575b50508160011b916000199060031b1c19161760098201555b6101408601519586516001600160401b038111610f245761174a81611741600a860154612b28565b600a8601612eaf565b6020601f8211600114611890576102007f61606860eb6c87306811e2695215385101daab53bd6ab4e9f9049aead9363c7d95938361183a9694600f946118429c9d600092611885575b50508160011b916000199060031b1c191617600a8501555b6117eb600b85016117cf6101608401511515829060ff801983541691151516179055565b610180830151815461ff00191690151560081b61ff0016179055565b6101a0810151600c8501556101c0810151600d8501556118216101e08201511515600e86019060ff801983541691151516179055565b0151910155604051918291602083526020830190612bdd565b0390a2612eeb565b604051916024358352604435602084015260408301527f2eac6cd4725e61db4cc241bd3b2da77b9d5d5d9536c9a5f7b3ff9ae693362a4160603393a36001600055005b015190508d80611793565b600a840160005260206000209860005b601f198416811061191757507f61606860eb6c87306811e2695215385101daab53bd6ab4e9f9049aead9363c7d95936001846118429b9c600f956102009561183a9a98601f198116106118fe575b505050811b01600a8501556117ab565b015160001960f88460031b161c191690558d80806118ee565b828201518b556001909a0199602092830192016118a0565b015190508880611701565b9250600984016000526020600020906000935b601f1984168510611991576001945083601f19811610611978575b505050811b016009820155611719565b015160001960f88460031b161c19169055888080611968565b8181015183556020948501946001909301929091019061194d565b0151905088806116a0565b9250600884016000526020600020906000935b601f1984168510611a0e576001945083601f198116106119f5575b505050811b0160088201556116b8565b015160001960f88460031b161c191690558880806119e5565b818101518355602094850194600190930192909101906119ca565b0151905088806115c1565b9250836000526020600020906000935b601f1984168510611a85576001945083601f19811610611a6c575b505050811b0181556115d6565b015160001960f88460031b161c19169055888080611a5f565b81810151835560209485019460019093019290910190611a44565b60849072202d2064696420796f7520617070726f76653f60681b6040519162461bcd60e51b835260206004840152603360248401527f476967457363726f773a20546f6b656e207472616e73666572206661696c65646044840152820152fd5b611b22915060203d602011611b28575b611b1a8183612b99565b810190612e5b565b856114ad565b503d611b10565b608490631a5c995960e21b6040519162461bcd60e51b8352602060048401526024808401527f476967457363726f773a204d65746145766964656e63652055524920726571756044840152820152fd5b60405162461bcd60e51b815260206004820152601d60248201527f476967457363726f773a2047696720616c7265616479206578697374730000006044820152fd5b60405162461bcd60e51b815260206004820152601d60248201527f476967457363726f773a20416d6f756e74206d757374206265203e20300000006044820152fd5b60405162461bcd60e51b815260206004820152601960248201527f476967457363726f773a20496e76616c696420676967204944000000000000006044820152fd5b346101a05760003660031901126101a0576003546040516001600160a01b039091168152602090f35b346101a057611c7c36612cc0565b90611c85612f0b565b8051906020928382019283206000526009845260018060a01b0392611cb584600260406000200154161515612f2e565b8251812060005260098552611ce0604060002085806002830154163314918215611e5c575050612f7a565b8251902060005260098452604060002090600582019360ff8554166008811015610556576003611d109114612fdb565b611d1d600a840154612b28565b15611e06579082916002600b940154163314600014611dea57611d4e818484019060ff801983541691151516179055565b611d5784612eeb565b60405191151582527fc2bb670a3ff82205b6746f677c85cb109ea86e5addeb0d3b4ff5e3ac27c7411d873393a3015460ff81169081611ddc575b50611d9d576001600055005b611dc760409160008051602061343f83398151915293600660ff198254161790556109fb816130f7565b926001825191818352820152a2808080610a0f565b60ff915060081c1684611d91565b818301805461ff00191682151560081b61ff0016179055611d4e565b60405162461bcd60e51b815260048101879052602860248201527f476967457363726f773a2041492070726f706f73616c206e6f742079657420736044820152671d589b5a5d1d195960c21b6064820152608490fd5b600391925001541633148588610650565b346101a05760003660031901126101a05760035460405163f7434ea960e01b815260206004820181905291829082906001600160a01b03168180611eb360248201612cfa565b03915afa90811561121a57600091611ecf575b50604051908152f35b90508181813d8311611ef5575b611ee68183612b99565b810103126101a0575182611ec6565b503d611edc565b346101a057611f0a36612c7a565b8151916020928382019081206000526009845260018060a01b0390611f3a82600260406000200154161515612f2e565b82519020600052600984526040600020916005830160ff81541660088110156105565760018091036121ce5783600386015416330361217d5785511561213857855160088601916001600160401b038211610f2457611fa382611f9d8554612b28565b85612eaf565b88601f83116001146120a657937fdccf2f8b2cc26eafcd61905cba744cff4b81d14740725f6376390dc6298a6a3c9693838061200a956120969995600c9960009361209b575b501b916000199060031b1c19161790555b805460ff19166002179055612eeb565b7f5bf50ff84da30bf962972249a44be3f7046a585680039b34329fda0374ee6de86040518981528061203e8b82018b612bdd565b0390a2600354169301549361208360266040518093652f697066732f60d01b8a830152612073815180928c8686019101612bba565b8101036006810184520182612b99565b6040519182918783523397830190612bdd565b0390a4005b8e015192508f611fe9565b601f92919219821690846000528a6000209160005b8c8c838310612125575050509383600c97937fdccf2f8b2cc26eafcd61905cba744cff4b81d14740725f6376390dc6298a6a3c9a97936120969a9661200a981061210c575b5050811b019055611ffa565b8d015160001960f88460031b161c191690558d80612100565b84015185559386019392830192016120bb565b60405162461bcd60e51b815260048101889052601c60248201527f476967457363726f773a20496e76616c696420495046532068617368000000006044820152606490fd5b60405162461bcd60e51b815260048101889052602360248201527f476967457363726f773a204f6e6c792061737369676e656420667265656c616e60448201526231b2b960e91b6064820152608490fd5b60405162461bcd60e51b8152600481018890526024808201527f476967457363726f773a20476967206e6f7420696e2041535349474e454420736044820152637461746560e01b6064820152608490fd5b346101a05760003660031901126101a0576020600754604051908152f35b346101a0576020806003193601126101a0576004356001600160401b0381116101a05761226e903690600401612c33565b612276612f0b565b80518282019081206000526009835260018060a01b03906122a282600260406000200154161515612f2e565b825190206000526009835260406000209060028201541633036123695760050180549260ff841660088110156105565760020361231a57506006610a0f9360ff19161790556122f081612eeb565b7f77303c613747e36eb28c1014d80bc2e234d0e8c43781f485fc039c6c3971dd27600080a26130f7565b6084906040519062461bcd60e51b82526004820152602260248201527f476967457363726f773a2050726f6f66206e6f7420796574207375626d697474604482015261195960f21b6064820152fd5b60405162461bcd60e51b815260048101849052602260248201527f476967457363726f773a204f6e6c7920636c69656e742063616e20617070726f604482015261766560f01b6064820152608490fd5b346101a0576020806003193601126101a0576004356001600160401b0381116101a0576123ea903690600401612c33565b9081518183019081206000526009825260018060a01b039061241782600260406000200154161515612f2e565b83519020600052600982526040600020600581019283549260ff84166008811015610556576124f257600283015416331461249e575090600360019201336001600160601b0360a01b82541617905560ff19161790556124773391612eeb565b7fb7ed08e9bc0bedc4c80918b16d2e2f9af8d8297af1c39871eee3ad73b569fdd9600080a3005b6084906040519062461bcd60e51b82526004820152602760248201527f476967457363726f773a20436c69656e742063616e6e6f7420616363657074206044820152666f776e2067696760c81b6064820152fd5b60405162461bcd60e51b815260048101839052601760248201527f476967457363726f773a20476967206e6f74206f70656e0000000000000000006044820152606490fd5b346101a05760403660031901126101a057602435600435612556612f0b565b6003546001600160a01b039290831633036127c657816000526020600a81526040600020546000526009815260406000209360ff600e860154161561276a57600585019485549060ff8216600881101561055657600403612716578495967f394027a5fa6e098a1191094d1719d6929b9abc535fcc0c8f448d6a4e7562227695600f83015560018714600014612646576126149250600660ff1982541617905561260f60405161260a816103308186612d8c565b6130f7565b61306f565b60008051602061343f8339815191526040805160018152600286820152a25b6003541692604051908152a36001600055005b6002870361269a576126779250600760ff1982541617905561260f604051612672816103308186612d8c565b61332b565b60008051602061343f8339815191526040805160008152600286820152a2612633565b60056126ac9360ff191617905561306f565b7fccf7715e3fa432a68fef15ec4e80d6d2ee972694f492316bf95f348c6b1af5b060806040518581526026868201527f4b6c65726f73207265667573656420746f20617262697472617465202872756c604082015265696e673d302960d01b6060820152a2612633565b60405162461bcd60e51b815260048101859052602660248201527f476967457363726f773a204e6f7420696e204b6c65726f73206469737075746560448201526520737461746560d01b6064820152608490fd5b60405162461bcd60e51b815260048101839052602e60248201527f476967457363726f773a204e6f204b6c65726f73206469737075746520666f7560448201526d1b9908199bdc881d1a1a5cc8125160921b6064820152608490fd5b60405162461bcd60e51b815260206004820152603160248201527f476967457363726f773a204f6e6c79204b6c65726f732061726269747261746f604482015270722063616e2063616c6c2072756c65282960781b6064820152608490fd5b346101a05760203660031901126101a057600435612841612e2f565b6103e8811161284f57600555005b606460405162461bcd60e51b815260206004820152602060248201527f476967457363726f773a204665652063616e6e6f7420657863656564203130256044820152fd5b346101a05760403660031901126101a0576128ac612c02565b60249081356001600160401b03918282116101a057366023830112156101a05781600401359283116101a057368484840101116101a0576128eb612e2f565b6001600160a01b03168015612a13576001600160601b0360a01b6003541617600355612918600454612b28565b601f81116129d0575b50600090601f83116001146129635790829391600093612956575b505050600019600383901b1c191660019190911b17600455005b010135905082808061293c565b601f1983169360008051602061345f8339815191529260005b8681106129b65750846001961061299a575b50505050811b01600455005b60001960f88660031b161c19920101351690558280808061298e565b90936020600181928588880101358155019501910161297c565b612a039060008051602061345f833981519152601f850160051c81019160208610612a09575b601f0160051c0190612e98565b83612921565b90915081906129f6565b60405162461bcd60e51b815260206004820152601d818601527f476967457363726f773a20496e76616c69642061726269747261746f720000006044820152606490fd5b346101a05760003660031901126101a0576000600454612a7681612b28565b80845290600190818116908115612b015750600114612ab8575b612ab484612aa081860382612b99565b604051918291602083526020830190612bdd565b0390f35b60046000908152925060008051602061345f8339815191525b828410612ae9575050508101602001612aa082612a90565b80546020858701810191909152909301928101612ad1565b60ff191660208087019190915292151560051b85019092019250612aa09150839050612a90565b90600182811c92168015612b58575b6020831014612b4257565b634e487b7160e01b600052602260045260246000fd5b91607f1691612b37565b61022081019081106001600160401b03821117610f2457604052565b602081019081106001600160401b03821117610f2457604052565b90601f801991011681019081106001600160401b03821117610f2457604052565b60005b838110612bcd5750506000910152565b8181015183820152602001612bbd565b90602091612bf681518092818552858086019101612bba565b601f01601f1916010190565b600435906001600160a01b03821682036101a057565b6001600160401b038111610f2457601f01601f191660200190565b81601f820112156101a057803590612c4a82612c18565b92612c586040519485612b99565b828452602083830101116101a057816000926020809301838601378301015290565b9060406003198301126101a0576001600160401b036004358181116101a05783612ca691600401612c33565b926024359182116101a057612cbd91600401612c33565b90565b60406003198201126101a057600435906001600160401b0382116101a057612cea91600401612c33565b9060243580151581036101a05790565b60045460009291612d0a82612b28565b80825291600190818116908115612d6f5750600114612d2857505050565b91929350600460005260008051602061345f833981519152916000925b848410612d5757505060209250010190565b80546020858501810191909152909301928101612d45565b915050602093945060ff929192191683830152151560051b010190565b9060009291805491612d9d83612b28565b918282526001938481169081600014612dff5750600114612dbf575b50505050565b90919394506000526020928360002092846000945b838610612deb575050505001019038808080612db9565b805485870183015294019385908201612dd4565b9294505050602093945060ff191683830152151560051b01019038808080612db9565b9060088210156105565752565b6001546001600160a01b03163303612e4357565b60405163118cdaa760e01b8152336004820152602490fd5b908160209103126101a0575180151581036101a05790565b6000198114612e825760010190565b634e487b7160e01b600052601160045260246000fd5b818110612ea3575050565b60008155600101612e98565b9190601f8111612ebe57505050565b612ee9926000526020600020906020601f840160051c83019310612a0957601f0160051c0190612e98565b565b612f0390602060405192828480945193849201612bba565b810103902090565b600260005414612f1c576002600055565b604051633ee5aeb560e01b8152600490fd5b15612f3557565b60405162461bcd60e51b815260206004820152601d60248201527f476967457363726f773a2047696720646f6573206e6f742065786973740000006044820152606490fd5b15612f8157565b60405162461bcd60e51b815260206004820152602c60248201527f476967457363726f773a2043616c6c6572206973206e6f74206120706172747960448201526b20746f20746869732067696760a01b6064820152608490fd5b15612fe257565b60405162461bcd60e51b815260206004820152602260248201527f476967457363726f773a204e6f7420696e204149206469737075746520737461604482015261746560f01b6064820152608490fd5b91908203918211612e8257565b3d1561306a573d9061305082612c18565b9161305e6040519384612b99565b82523d6000602084013e565b606090565b6040518091600090805461308281612b28565b916001918083169081156130de57506001146130a2575b50505003902090565b9091925060005260209081600020906000915b8483106130ca57505050508101388080613099565b8054878401528695509183019181016130b5565b60ff191686525050508015150282019050388080613099565b80516020908183012060009081526009825260409081812060049182820154916005548084029084820414841517156133185761271061313991048094613032565b6002546003929092018054875163a9059cbb60e01b8082526001600160a01b03928316828a0190815260208101869052949892969395929490928b91839189169082908790829060400103925af190811561330e5783916132f1575b50156132a2578890866131e4575b505050507fa4b9aff2e7bd4815fd0c77044b1652a3cdc9d61c082a9a75510dd9d30d1c1009949392916131d891541696612eeb565b948351928352820152a3565b6002546006548a5192835287166001600160a01b031685830190815260208101899052919291839188169082908690829060400103925af1918215613297579161327a575b5015613237578087816131a3565b855162461bcd60e51b8152908101879052601e60248201527f476967457363726f773a20466565207472616e73666572206661696c656400006044820152606490fd5b6132919150883d8a11611b2857611b1a8183612b99565b38613229565b8851903d90823e3d90fd5b875162461bcd60e51b81528084018a90526024808201527f476967457363726f773a20467265656c616e636572207061796d656e742066616044820152631a5b195960e21b6064820152608490fd5b61330891508a3d8c11611b2857611b1a8183612b99565b38613195565b89513d85823e3d90fd5b634e487b7160e01b835260118552602483fd5b8051602080830191909120600090815260098252604080822060028054908201805460049384018054865163a9059cbb60e01b81526001600160a01b03938416968101969096526024860152979495939092879082906044908290889088165af1908115613434578491613417575b50156133d3577fa4b9aff2e7bd4815fd0c77044b1652a3cdc9d61c082a9a75510dd9d30d1c1009949392916131d8915416965492612eeb565b845162461bcd60e51b815260048101879052601f60248201527f476967457363726f773a20436c69656e7420726566756e64206661696c6564006044820152606490fd5b61342e9150873d8911611b2857611b1a8183612b99565b3861339a565b86513d86823e3d90fdfe58387d4841c7a4ce9072883354234b3b586be2a2dd796c9c8164a98f572008d68a35acfbc15ff81a39ae7d344fd709f28e8600b4aa8c65c6b64bfe7fe36bd19ba2646970667358221220bd88519f688ebc075b1ed7a9d1b362a007a28e87a153da680316d4f5c9ea0dbd64736f6c63430008140033",
  "linkReferences": {},
  "deployedLinkReferences": {}
}