{
  "_format": "hh3-artifact-1",
  "contractName": "GigEscrow",
  "sourceName": "contracts/GigEscrow.sol",
  "abi": [
    {
      "inputs": [
        {
          "internalType": "address",
          "name": "_srtToken",
          "type": "address"
        }
      ],
      "stateMutability": "nonpayable",
      "type": "constructor"
    },
    {
      "inputs": [
        {
          "internalType": "address",
          "name": "owner",
          "type": "address"
        }
      ],
      "name": "OwnableInvalidOwner",
      "type": "error"
    },
    {
      "inputs": [
        {
          "internalType": "address",
          "name": "account",
          "type": "address"
        }
      ],
      "name": "OwnableUnauthorizedAccount",
      "type": "error"
    },
    {
      "inputs": [],
      "name": "ReentrancyGuardReentrantCall",
      "type": "error"
    },
    {
      "anonymous": false,
      "inputs": [
        {
          "indexed": true,
          "internalType": "string",
          "name": "gigId",
          "type": "string"
        },
        {
          "indexed": false,
          "internalType": "bool",
          "name": "releasedToFreelancer",
          "type": "bool"
        }
      ],
      "name": "DisputeResolved",
      "type": "event"
    },
    {
      "anonymous": false,
      "inputs": [
        {
          "indexed": true,
          "internalType": "string",
          "name": "gigId",
          "type": "string"
        },
        {
          "indexed": true,
          "internalType": "address",
          "name": "freelancer",
          "type": "address"
        }
      ],
      "name": "GigAccepted",
      "type": "event"
    },
    {
      "anonymous": false,
      "inputs": [
        {
          "indexed": true,
          "internalType": "string",
          "name": "gigId",
          "type": "string"
        }
      ],
      "name": "GigCancelled",
      "type": "event"
    },
    {
      "anonymous": false,
      "inputs": [
        {
          "indexed": true,
          "internalType": "string",
          "name": "gigId",
          "type": "string"
        },
        {
          "indexed": true,
          "internalType": "address",
          "name": "customer",
          "type": "address"
        },
        {
          "indexed": false,
          "internalType": "uint256",
          "name": "amount",
          "type": "uint256"
        },
        {
          "indexed": false,
          "internalType": "uint256",
          "name": "deadline",
          "type": "uint256"
        }
      ],
      "name": "GigCreated",
      "type": "event"
    },
    {
      "anonymous": false,
      "inputs": [
        {
          "indexed": true,
          "internalType": "address",
          "name": "previousOwner",
          "type": "address"
        },
        {
          "indexed": true,
          "internalType": "address",
          "name": "newOwner",
          "type": "address"
        }
      ],
      "name": "OwnershipTransferred",
      "type": "event"
    },
    {
      "anonymous": false,
      "inputs": [
        {
          "indexed": true,
          "internalType": "string",
          "name": "gigId",
          "type": "string"
        },
        {
          "indexed": true,
          "internalType": "address",
          "name": "freelancer",
          "type": "address"
        },
        {
          "indexed": false,
          "internalType": "uint256",
          "name": "amount",
          "type": "uint256"
        },
        {
          "indexed": false,
          "internalType": "uint256",
          "name": "platformFee",
          "type": "uint256"
        }
      ],
      "name": "PaymentReleased",
      "type": "event"
    },
    {
      "anonymous": false,
      "inputs": [
        {
          "indexed": true,
          "internalType": "string",
          "name": "gigId",
          "type": "string"
        },
        {
          "indexed": false,
          "internalType": "string",
          "name": "ipfsHash",
          "type": "string"
        }
      ],
      "name": "ProofSubmitted",
      "type": "event"
    },
    {
      "anonymous": false,
      "inputs": [
        {
          "indexed": true,
          "internalType": "string",
          "name": "gigId",
          "type": "string"
        }
      ],
      "name": "WorkApproved",
      "type": "event"
    },
    {
      "anonymous": false,
      "inputs": [
        {
          "indexed": true,
          "internalType": "string",
          "name": "gigId",
          "type": "string"
        },
        {
          "indexed": false,
          "internalType": "string",
          "name": "reason",
          "type": "string"
        }
      ],
      "name": "WorkRejected",
      "type": "event"
    },
    {
      "inputs": [],
      "name": "FEE_DENOMINATOR",
      "outputs": [
        {
          "internalType": "uint256",
          "name": "",
          "type": "uint256"
        }
      ],
      "stateMutability": "view",
      "type": "function"
    },
    {
      "inputs": [
        {
          "internalType": "string",
          "name": "_gigId",
          "type": "string"
        }
      ],
      "name": "acceptGig",
      "outputs": [],
      "stateMutability": "nonpayable",
      "type": "function"
    },
    {
      "inputs": [
        {
          "internalType": "string",
          "name": "_gigId",
          "type": "string"
        }
      ],
      "name": "approveWork",
      "outputs": [],
      "stateMutability": "nonpayable",
      "type": "function"
    },
    {
      "inputs": [
        {
          "internalType": "string",
          "name": "_gigId",
          "type": "string"
        }
      ],
      "name": "cancelGig",
      "outputs": [],
      "stateMutability": "nonpayable",
      "type": "function"
    },
    {
      "inputs": [
        {
          "internalType": "string",
          "name": "_gigId",
          "type": "string"
        },
        {
          "internalType": "uint256",
          "name": "_amount",
          "type": "uint256"
        },
        {
          "internalType": "uint256",
          "name": "_deadline",
          "type": "uint256"
        }
      ],
      "name": "createGig",
      "outputs": [],
      "stateMutability": "nonpayable",
      "type": "function"
    },
    {
      "inputs": [],
      "name": "feeCollector",
      "outputs": [
        {
          "internalType": "address",
          "name": "",
          "type": "address"
        }
      ],
      "stateMutability": "view",
      "type": "function"
    },
    {
      "inputs": [
        {
          "internalType": "string",
          "name": "_gigId",
          "type": "string"
        }
      ],
      "name": "getGig",
      "outputs": [
        {
          "components": [
            {
              "internalType": "string",
              "name": "gigId",
              "type": "string"
            },
            {
              "internalType": "address",
              "name": "customer",
              "type": "address"
            },
            {
              "internalType": "address",
              "name": "freelancer",
              "type": "address"
            },
            {
              "internalType": "uint256",
              "name": "amount",
              "type": "uint256"
            },
            {
              "internalType": "enum GigEscrow.GigStatus",
              "name": "status",
              "type": "uint8"
            },
            {
              "internalType": "string",
              "name": "ipfsHash",
              "type": "string"
            },
            {
              "internalType": "uint256",
              "name": "createdAt",
              "type": "uint256"
            },
            {
              "internalType": "uint256",
              "name": "deadline",
              "type": "uint256"
            }
          ],
          "internalType": "struct GigEscrow.Gig",
          "name": "",
          "type": "tuple"
        }
      ],
      "stateMutability": "view",
      "type": "function"
    },
    {
      "inputs": [
        {
          "internalType": "string",
          "name": "",
          "type": "string"
        }
      ],
      "name": "gigs",
      "outputs": [
        {
          "internalType": "string",
          "name": "gigId",
          "type": "string"
        },
        {
          "internalType": "address",
          "name": "customer",
          "type": "address"
        },
        {
          "internalType": "address",
          "name": "freelancer",
          "type": "address"
        },
        {
          "internalType": "uint256",
          "name": "amount",
          "type": "uint256"
        },
        {
          "internalType": "enum GigEscrow.GigStatus",
          "name": "status",
          "type": "uint8"
        },
        {
          "internalType": "string",
          "name": "ipfsHash",
          "type": "string"
        },
        {
          "internalType": "uint256",
          "name": "createdAt",
          "type": "uint256"
        },
        {
          "internalType": "uint256",
          "name": "deadline",
          "type": "uint256"
        }
      ],
      "stateMutability": "view",
      "type": "function"
    },
    {
      "inputs": [],
      "name": "owner",
      "outputs": [
        {
          "internalType": "address",
          "name": "",
          "type": "address"
        }
      ],
      "stateMutability": "view",
      "type": "function"
    },
    {
      "inputs": [],
      "name": "platformFeePercent",
      "outputs": [
        {
          "internalType": "uint256",
          "name": "",
          "type": "uint256"
        }
      ],
      "stateMutability": "view",
      "type": "function"
    },
    {
      "inputs": [
        {
          "internalType": "string",
          "name": "_gigId",
          "type": "string"
        },
        {
          "internalType": "string",
          "name": "_reason",
          "type": "string"
        }
      ],
      "name": "rejectWork",
      "outputs": [],
      "stateMutability": "nonpayable",
      "type": "function"
    },
    {
      "inputs": [],
      "name": "renounceOwnership",
      "outputs": [],
      "stateMutability": "nonpayable",
      "type": "function"
    },
    {
      "inputs": [
        {
          "internalType": "string",
          "name": "_gigId",
          "type": "string"
        },
        {
          "internalType": "bool",
          "name": "_releaseToFreelancer",
          "type": "bool"
        }
      ],
      "name": "resolveDispute",
      "outputs": [],
      "stateMutability": "nonpayable",
      "type": "function"
    },
    {
      "inputs": [
        {
          "internalType": "address",
          "name": "_newCollector",
          "type": "address"
        }
      ],
      "name": "setFeeCollector",
      "outputs": [],
      "stateMutability": "nonpayable",
      "type": "function"
    },
    {
      "inputs": [
        {
          "internalType": "uint256",
          "name": "_newFeePercent",
          "type": "uint256"
        }
      ],
      "name": "setPlatformFee",
      "outputs": [],
      "stateMutability": "nonpayable",
      "type": "function"
    },
    {
      "inputs": [],
      "name": "srtToken",
      "outputs": [
        {
          "internalType": "contract IERC20",
          "name": "",
          "type": "address"
        }
      ],
      "stateMutability": "view",
      "type": "function"
    },
    {
      "inputs": [
        {
          "internalType": "string",
          "name": "_gigId",
          "type": "string"
        },
        {
          "internalType": "string",
          "name": "_ipfsHash",
          "type": "string"
        }
      ],
      "name": "submitProof",
      "outputs": [],
      "stateMutability": "nonpayable",
      "type": "function"
    },
    {
      "inputs": [
        {
          "internalType": "address",
          "name": "newOwner",
          "type": "address"
        }
      ],
      "name": "transferOwnership",
      "outputs": [],
      "stateMutability": "nonpayable",
      "type": "function"
    }
  ],
  "bytecode": "0x608060405260c860045534801562000015575f80fd5b5060405162001f5138038062001f51833981016040819052620000389162000147565b60015f5533806200006357604051631e4fbdf760e01b81525f60048201526024015b60405180910390fd5b6200006e81620000f6565b506001600160a01b038116620000c75760405162461bcd60e51b815260206004820152601560248201527f496e76616c696420746f6b656e2061646472657373000000000000000000000060448201526064016200005a565b600280546001600160a01b039092166001600160a01b0319928316179055600580549091163317905562000176565b600180546001600160a01b038381166001600160a01b0319831681179093556040519116919082907f8be0079c531659141344cd1fd0a4f28419497f9722a3daafe3b4186f6b6457e0905f90a35050565b5f6020828403121562000158575f80fd5b81516001600160a01b03811681146200016f575f80fd5b9392505050565b611dcd80620001845f395ff3fe608060405234801561000f575f80fd5b5060043610610111575f3560e01c8063a42dce801161009e578063d73792a91161006e578063d73792a914610232578063df2474f01461023b578063e10052781461024e578063e4223fba14610261578063f2fde38b14610281575f80fd5b8063a42dce80146101d2578063b0c58051146101e5578063c415b95c1461020c578063ce4226261461021f575f80fd5b8063715018a6116100e4578063715018a61461016357806380c23d811461016b5780638ac268141461017e5780638c639a85146101915780638da5cb5b146101ad575f80fd5b806312e8e2c3146101155780634a99c4891461012a57806350c0467b1461013d578063605c967e14610150575b5f80fd5b6101286101233660046117cf565b610294565b005b610128610138366004611883565b6102f0565b61012861014b366004611883565b610459565b61012861015e3660046118bd565b6105ce565b61012861079b565b61012861017936600461191d565b6107ae565b61012861018c366004611883565b610aed565b61019a60045481565b6040519081526020015b60405180910390f35b6001546001600160a01b03165b6040516001600160a01b0390911681526020016101a4565b6101286101e0366004611967565b610d14565b6101f86101f3366004611883565b610d86565b6040516101a4989796959493929190611a15565b6005546101ba906001600160a01b031681565b61012861022d366004611a8c565b610ef2565b61019a61271081565b6002546101ba906001600160a01b031681565b61012861025c3660046118bd565b6110ef565b61027461026f366004611883565b61124f565b6040516101a49190611adb565b61012861028f366004611967565b6114a8565b61029c6114e2565b6103e88111156102eb5760405162461bcd60e51b81526020600482015260156024820152744665652063616e6e6f74206578636565642031302560581b60448201526064015b60405180910390fd5b600455565b5f6003826040516103019190611b7f565b90815260405190819003602001902060018101549091506001600160a01b031661033d5760405162461bcd60e51b81526004016102e290611b9a565b5f600482015460ff166005811115610357576103576119e1565b146103965760405162461bcd60e51b815260206004820152600f60248201526e23b4b39034b9903737ba1037b832b760891b60448201526064016102e2565b60018101546001600160a01b031633036103f25760405162461bcd60e51b815260206004820152601e60248201527f437573746f6d65722063616e6e6f7420616363657074206f776e20676967000060448201526064016102e2565b6002810180546001600160a01b0319163390811790915560048201805460ff19166001179055604051610426908490611b7f565b604051908190038120907fb7ed08e9bc0bedc4c80918b16d2e2f9af8d8297af1c39871eee3ad73b569fdd9905f90a35050565b61046161150f565b5f6003826040516104729190611b7f565b90815260405190819003602001902060018101549091506001600160a01b03166104ae5760405162461bcd60e51b81526004016102e290611b9a565b60018101546001600160a01b0316331461050a5760405162461bcd60e51b815260206004820152601960248201527f4f6e6c7920637573746f6d65722063616e20617070726f76650000000000000060448201526064016102e2565b6002600482015460ff166005811115610525576105256119e1565b1461056c5760405162461bcd60e51b8152602060048201526017602482015276141c9bdbd9881b9bdd081cdd589b5a5d1d1959081e595d604a1b60448201526064016102e2565b60048101805460ff19166003179055604051610589908390611b7f565b604051908190038120907f77303c613747e36eb28c1014d80bc2e234d0e8c43781f485fc039c6c3971dd27905f90a26105c182611537565b506105cb60015f55565b50565b5f6003836040516105df9190611b7f565b90815260405190819003602001902060018101549091506001600160a01b031661061b5760405162461bcd60e51b81526004016102e290611b9a565b6001600482015460ff166005811115610636576106366119e1565b146106795760405162461bcd60e51b815260206004820152601360248201527211da59c81a5cc81b9bdd08185cdcda59db9959606a1b60448201526064016102e2565b60028101546001600160a01b031633146106e75760405162461bcd60e51b815260206004820152602960248201527f4f6e6c792061737369676e656420667265656c616e6365722063616e2073756260448201526836b4ba10383937b7b360b91b60648201526084016102e2565b5f82511161072b5760405162461bcd60e51b8152602060048201526011602482015270092dcecc2d8d2c84092a08ca640d0c2e6d607b1b60448201526064016102e2565b600581016107398382611c4b565b5060048101805460ff19166002179055604051610757908490611b7f565b60405180910390207f5bf50ff84da30bf962972249a44be3f7046a585680039b34329fda0374ee6de88360405161078e9190611d07565b60405180910390a2505050565b6107a36114e2565b6107ac5f61177e565b565b6107b661150f565b5f8351116107f75760405162461bcd60e51b815260206004820152600e60248201526d125b9d985b1a590819da59c8125160921b60448201526064016102e2565b5f82116108465760405162461bcd60e51b815260206004820152601d60248201527f416d6f756e74206d7573742062652067726561746572207468616e203000000060448201526064016102e2565b5f6001600160a01b03166003846040516108609190611b7f565b908152604051908190036020019020600101546001600160a01b0316146108be5760405162461bcd60e51b815260206004820152601260248201527147696720616c72656164792065786973747360701b60448201526064016102e2565b6002546040516323b872dd60e01b8152336004820152306024820152604481018490526001600160a01b03909116906323b872dd906064016020604051808303815f875af1158015610912573d5f803e3d5ffd5b505050506040513d601f19601f820116820180604052508101906109369190611d19565b61097a5760405162461bcd60e51b8152602060048201526015602482015274151bdad95b881d1c985b9cd9995c8819985a5b1959605a1b60448201526064016102e2565b60408051610100810182528481523360208201525f91810182905260608101849052906080820190815260200160405180602001604052805f8152508152602001428152602001828152506003846040516109d59190611b7f565b908152604051908190036020019020815181906109f29082611c4b565b506020820151600180830180546001600160a01b039384166001600160a01b0319918216179091556040850151600285018054919094169116179091556060830151600383015560808301516004830180549192909160ff191690836005811115610a5f57610a5f6119e1565b021790555060a08201516005820190610a789082611c4b565b5060c0820151600682015560e0909101516007909101556040513390610a9f908590611b7f565b6040805191829003822085835260208301859052917f14beef0ad8863693cc5efd32eeee090c3b025093752511e7959380b356e95b4d910160405180910390a3610ae860015f55565b505050565b610af561150f565b5f600382604051610b069190611b7f565b90815260405190819003602001902060018101549091506001600160a01b0316610b425760405162461bcd60e51b81526004016102e290611b9a565b60018101546001600160a01b03163314610b9e5760405162461bcd60e51b815260206004820152601860248201527f4f6e6c7920637573746f6d65722063616e2063616e63656c000000000000000060448201526064016102e2565b5f600482015460ff166005811115610bb857610bb86119e1565b14610c055760405162461bcd60e51b815260206004820152601960248201527f43616e206f6e6c792063616e63656c206f70656e20676967730000000000000060448201526064016102e2565b6004818101805460ff191660051790556002546001830154600384015460405163a9059cbb60e01b81526001600160a01b03928316948101949094526024840152169063a9059cbb906044016020604051808303815f875af1158015610c6d573d5f803e3d5ffd5b505050506040513d601f19601f82011682018060405250810190610c919190611d19565b610ccd5760405162461bcd60e51b815260206004820152600d60248201526c1499599d5b990819985a5b1959609a1b60448201526064016102e2565b81604051610cdb9190611b7f565b604051908190038120907fcc77569f9f432c10f7e0e71bcf3d02a37899ef8840997233c70e00f21da57f96905f90a2506105cb60015f55565b610d1c6114e2565b6001600160a01b038116610d645760405162461bcd60e51b815260206004820152600f60248201526e496e76616c6964206164647265737360881b60448201526064016102e2565b600580546001600160a01b0319166001600160a01b0392909216919091179055565b8051602081830181018051600382529282019190930120915280548190610dac90611bc6565b80601f0160208091040260200160405190810160405280929190818152602001828054610dd890611bc6565b8015610e235780601f10610dfa57610100808354040283529160200191610e23565b820191905f5260205f20905b815481529060010190602001808311610e0657829003601f168201915b505050600184015460028501546003860154600487015460058801805497986001600160a01b039586169894909516965091945060ff169291610e6590611bc6565b80601f0160208091040260200160405190810160405280929190818152602001828054610e9190611bc6565b8015610edc5780601f10610eb357610100808354040283529160200191610edc565b820191905f5260205f20905b815481529060010190602001808311610ebf57829003601f168201915b5050505050908060060154908060070154905088565b610efa6114e2565b610f0261150f565b5f600383604051610f139190611b7f565b90815260405190819003602001902060018101549091506001600160a01b0316610f4f5760405162461bcd60e51b81526004016102e290611b9a565b60048082015460ff166005811115610f6957610f696119e1565b14610fac5760405162461bcd60e51b815260206004820152601360248201527211da59c81a5cc81b9bdd08191a5cdc1d5d1959606a1b60448201526064016102e2565b8115610fcf5760048101805460ff19166003179055610fca83611537565b611097565b6004818101805460ff191660051790556002546001830154600384015460405163a9059cbb60e01b81526001600160a01b03928316948101949094526024840152169063a9059cbb906044016020604051808303815f875af1158015611037573d5f803e3d5ffd5b505050506040513d601f19601f8201168201806040525081019061105b9190611d19565b6110975760405162461bcd60e51b815260206004820152600d60248201526c1499599d5b990819985a5b1959609a1b60448201526064016102e2565b826040516110a59190611b7f565b6040519081900381208315158252907fe600be29a3a1de4d38473c6e4287c995f6487c50a7ee94027ba53faf9fd338db9060200160405180910390a2506110eb60015f55565b5050565b5f6003836040516111009190611b7f565b90815260405190819003602001902060018101549091506001600160a01b031661113c5760405162461bcd60e51b81526004016102e290611b9a565b60018101546001600160a01b031633146111985760405162461bcd60e51b815260206004820152601860248201527f4f6e6c7920637573746f6d65722063616e2072656a656374000000000000000060448201526064016102e2565b6002600482015460ff1660058111156111b3576111b36119e1565b146111fa5760405162461bcd60e51b8152602060048201526017602482015276141c9bdbd9881b9bdd081cdd589b5a5d1d1959081e595d604a1b60448201526064016102e2565b6004818101805460ff19169091179055604051611218908490611b7f565b60405180910390207ffef745cf87ee280d29015fe18c4c789a0bc9fb3026fc4db575cf9b3fe68935c38360405161078e9190611d07565b611294604080516101008101825260608082525f6020830181905292820183905281018290529060808201908152602001606081526020015f81526020015f81525090565b5f6001600160a01b03166003836040516112ae9190611b7f565b908152604051908190036020019020600101546001600160a01b0316036112e75760405162461bcd60e51b81526004016102e290611b9a565b6003826040516112f79190611b7f565b9081526020016040518091039020604051806101000160405290815f8201805461132090611bc6565b80601f016020809104026020016040519081016040528092919081815260200182805461134c90611bc6565b80156113975780601f1061136e57610100808354040283529160200191611397565b820191905f5260205f20905b81548152906001019060200180831161137a57829003601f168201915b505050918352505060018201546001600160a01b039081166020830152600283015416604082015260038201546060820152600482015460809091019060ff1660058111156113e8576113e86119e1565b60058111156113f9576113f96119e1565b815260200160058201805461140d90611bc6565b80601f016020809104026020016040519081016040528092919081815260200182805461143990611bc6565b80156114845780601f1061145b57610100808354040283529160200191611484565b820191905f5260205f20905b81548152906001019060200180831161146757829003601f168201915b50505050508152602001600682015481526020016007820154815250509050919050565b6114b06114e2565b6001600160a01b0381166114d957604051631e4fbdf760e01b81525f60048201526024016102e2565b6105cb8161177e565b6001546001600160a01b031633146107ac5760405163118cdaa760e01b81523360048201526024016102e2565b60025f540361153157604051633ee5aeb560e01b815260040160405180910390fd5b60025f55565b5f6003826040516115489190611b7f565b908152602001604051809103902090505f612710600454836003015461156e9190611d48565b6115789190611d65565b90505f81836003015461158b9190611d84565b600280549085015460405163a9059cbb60e01b81526001600160a01b03918216600482015260248101849052929350169063a9059cbb906044016020604051808303815f875af11580156115e1573d5f803e3d5ffd5b505050506040513d601f19601f820116820180604052508101906116059190611d19565b6116515760405162461bcd60e51b815260206004820152601c60248201527f5061796d656e7420746f20667265656c616e636572206661696c65640000000060448201526064016102e2565b81156117195760025460055460405163a9059cbb60e01b81526001600160a01b0391821660048201526024810185905291169063a9059cbb906044016020604051808303815f875af11580156116a9573d5f803e3d5ffd5b505050506040513d601f19601f820116820180604052508101906116cd9190611d19565b6117195760405162461bcd60e51b815260206004820152601c60248201527f506c6174666f726d20666565207472616e73666572206661696c65640000000060448201526064016102e2565b60028301546040516001600160a01b0390911690611738908690611b7f565b6040805191829003822084835260208301869052917fa4b9aff2e7bd4815fd0c77044b1652a3cdc9d61c082a9a75510dd9d30d1c1009910160405180910390a350505050565b600180546001600160a01b038381166001600160a01b0319831681179093556040519116919082907f8be0079c531659141344cd1fd0a4f28419497f9722a3daafe3b4186f6b6457e0905f90a35050565b5f602082840312156117df575f80fd5b5035919050565b634e487b7160e01b5f52604160045260245ffd5b5f82601f830112611809575f80fd5b813567ffffffffffffffff80821115611824576118246117e6565b604051601f8301601f19908116603f0116810190828211818310171561184c5761184c6117e6565b81604052838152866020858801011115611864575f80fd5b836020870160208301375f602085830101528094505050505092915050565b5f60208284031215611893575f80fd5b813567ffffffffffffffff8111156118a9575f80fd5b6118b5848285016117fa565b949350505050565b5f80604083850312156118ce575f80fd5b823567ffffffffffffffff808211156118e5575f80fd5b6118f1868387016117fa565b93506020850135915080821115611906575f80fd5b50611913858286016117fa565b9150509250929050565b5f805f6060848603121561192f575f80fd5b833567ffffffffffffffff811115611945575f80fd5b611951868287016117fa565b9660208601359650604090950135949350505050565b5f60208284031215611977575f80fd5b81356001600160a01b038116811461198d575f80fd5b9392505050565b5f5b838110156119ae578181015183820152602001611996565b50505f910152565b5f81518084526119cd816020860160208601611994565b601f01601f19169290920160200192915050565b634e487b7160e01b5f52602160045260245ffd5b60068110611a1157634e487b7160e01b5f52602160045260245ffd5b9052565b5f610100808352611a288184018c6119b6565b6001600160a01b038b811660208601528a166040850152606084018990529050611a5560808401886119f5565b82810360a0840152611a6781876119b6565b60c0840195909552505060e001529695505050505050565b80151581146105cb575f80fd5b5f8060408385031215611a9d575f80fd5b823567ffffffffffffffff811115611ab3575f80fd5b611abf858286016117fa565b9250506020830135611ad081611a7f565b809150509250929050565b602081525f8251610100806020850152611af96101208501836119b6565b915060018060a01b0360208601511660408501526040850151611b2760608601826001600160a01b03169052565b50606085015160808501526080850151611b4460a08601826119f5565b5060a0850151848303601f190160c0860152611b6083826119b6565b60c087015160e087810191909152909601519190940152509192915050565b5f8251611b90818460208701611994565b9190910192915050565b60208082526012908201527111da59c8191bd95cc81b9bdd08195e1a5cdd60721b604082015260600190565b600181811c90821680611bda57607f821691505b602082108103611bf857634e487b7160e01b5f52602260045260245ffd5b50919050565b601f821115610ae8575f81815260208120601f850160051c81016020861015611c245750805b601f850160051c820191505b81811015611c4357828155600101611c30565b505050505050565b815167ffffffffffffffff811115611c6557611c656117e6565b611c7981611c738454611bc6565b84611bfe565b602080601f831160018114611cac575f8415611c955750858301515b5f19600386901b1c1916600185901b178555611c43565b5f85815260208120601f198616915b82811015611cda57888601518255948401946001909101908401611cbb565b5085821015611cf757878501515f19600388901b60f8161c191681555b5050505050600190811b01905550565b602081525f61198d60208301846119b6565b5f60208284031215611d29575f80fd5b815161198d81611a7f565b634e487b7160e01b5f52601160045260245ffd5b8082028115828204841417611d5f57611d5f611d34565b92915050565b5f82611d7f57634e487b7160e01b5f52601260045260245ffd5b500490565b81810381811115611d5f57611d5f611d3456fea26469706673582212200873e632d0cc7a81792dcf63fb53ad0ad00393594343c5df21d17a819646307864736f6c63430008140033",
  "linkReferences": {},
  "deployedLinkReferences": {},
  "immutableReferences": {},
  "inputSourceName": "project/contracts/GigEscrow.sol",
  "buildInfoId": "solc-0_8_20-aecc5419409a405a760129226d544ca07e0d924b"
}