{
  "_format": "hh3-artifact-1",
  "contractName": "SwaRojgarToken",
  "sourceName": "contracts/SwaRojgarToken.sol",
  "abi": [
    {
      "inputs": [],
      "stateMutability": "nonpayable",
      "type": "constructor"
    },
    {
      "inputs": [
        {
          "internalType": "address",
          "name": "spender",
          "type": "address"
        },
        {
          "internalType": "uint256",
          "name": "allowance",
          "type": "uint256"
        },
        {
          "internalType": "uint256",
          "name": "needed",
          "type": "uint256"
        }
      ],
      "name": "ERC20InsufficientAllowance",
      "type": "error"
    },
    {
      "inputs": [
        {
          "internalType": "address",
          "name": "sender",
          "type": "address"
        },
        {
          "internalType": "uint256",
          "name": "balance",
          "type": "uint256"
        },
        {
          "internalType": "uint256",
          "name": "needed",
          "type": "uint256"
        }
      ],
      "name": "ERC20InsufficientBalance",
      "type": "error"
    },
    {
      "inputs": [
        {
          "internalType": "address",
          "name": "approver",
          "type": "address"
        }
      ],
      "name": "ERC20InvalidApprover",
      "type": "error"
    },
    {
      "inputs": [
        {
          "internalType": "address",
          "name": "receiver",
          "type": "address"
        }
      ],
      "name": "ERC20InvalidReceiver",
      "type": "error"
    },
    {
      "inputs": [
        {
          "internalType": "address",
          "name": "sender",
          "type": "address"
        }
      ],
      "name": "ERC20InvalidSender",
      "type": "error"
    },
    {
      "inputs": [
        {
          "internalType": "address",
          "name": "spender",
          "type": "address"
        }
      ],
      "name": "ERC20InvalidSpender",
      "type": "error"
    },
    {
      "inputs": [
        {
          "internalType": "address",
          "name": "owner",
          "type": "address"
        }
      ],
      "name": "OwnableInvalidOwner",
      "type": "error"
    },
    {
      "inputs": [
        {
          "internalType": "address",
          "name": "account",
          "type": "address"
        }
      ],
      "name": "OwnableUnauthorizedAccount",
      "type": "error"
    },
    {
      "anonymous": false,
      "inputs": [
        {
          "indexed": true,
          "internalType": "address",
          "name": "owner",
          "type": "address"
        },
        {
          "indexed": true,
          "internalType": "address",
          "name": "spender",
          "type": "address"
        },
        {
          "indexed": false,
          "internalType": "uint256",
          "name": "value",
          "type": "uint256"
        }
      ],
      "name": "Approval",
      "type": "event"
    },
    {
      "anonymous": false,
      "inputs": [
        {
          "indexed": true,
          "internalType": "address",
          "name": "previousOwner",
          "type": "address"
        },
        {
          "indexed": true,
          "internalType": "address",
          "name": "newOwner",
          "type": "address"
        }
      ],
      "name": "OwnershipTransferred",
      "type": "event"
    },
    {
      "anonymous": false,
      "inputs": [
        {
          "indexed": true,
          "internalType": "address",
          "name": "from",
          "type": "address"
        },
        {
          "indexed": true,
          "internalType": "address",
          "name": "to",
          "type": "address"
        },
        {
          "indexed": false,
          "internalType": "uint256",
          "name": "value",
          "type": "uint256"
        }
      ],
      "name": "Transfer",
      "type": "event"
    },
    {
      "inputs": [],
      "name": "INITIAL_SUPPLY",
      "outputs": [
        {
          "internalType": "uint256",
          "name": "",
          "type": "uint256"
        }
      ],
      "stateMutability": "view",
      "type": "function"
    },
    {
      "inputs": [
        {
          "internalType": "address",
          "name": "owner",
          "type": "address"
        },
        {
          "internalType": "address",
          "name": "spender",
          "type": "address"
        }
      ],
      "name": "allowance",
      "outputs": [
        {
          "internalType": "uint256",
          "name": "",
          "type": "uint256"
        }
      ],
      "stateMutability": "view",
      "type": "function"
    },
    {
      "inputs": [
        {
          "internalType": "address",
          "name": "spender",
          "type": "address"
        },
        {
          "internalType": "uint256",
          "name": "value",
          "type": "uint256"
        }
      ],
      "name": "approve",
      "outputs": [
        {
          "internalType": "bool",
          "name": "",
          "type": "bool"
        }
      ],
      "stateMutability": "nonpayable",
      "type": "function"
    },
    {
      "inputs": [
        {
          "internalType": "address",
          "name": "account",
          "type": "address"
        }
      ],
      "name": "balanceOf",
      "outputs": [
        {
          "internalType": "uint256",
          "name": "",
          "type": "uint256"
        }
      ],
      "stateMutability": "view",
      "type": "function"
    },
    {
      "inputs": [
        {
          "internalType": "uint256",
          "name": "value",
          "type": "uint256"
        }
      ],
      "name": "burn",
      "outputs": [],
      "stateMutability": "nonpayable",
      "type": "function"
    },
    {
      "inputs": [
        {
          "internalType": "address",
          "name": "account",
          "type": "address"
        },
        {
          "internalType": "uint256",
          "name": "value",
          "type": "uint256"
        }
      ],
      "name": "burnFrom",
      "outputs": [],
      "stateMutability": "nonpayable",
      "type": "function"
    },
    {
      "inputs": [],
      "name": "decimals",
      "outputs": [
        {
          "internalType": "uint8",
          "name": "",
          "type": "uint8"
        }
      ],
      "stateMutability": "pure",
      "type": "function"
    },
    {
      "inputs": [
        {
          "internalType": "address",
          "name": "to",
          "type": "address"
        },
        {
          "internalType": "uint256",
          "name": "amount",
          "type": "uint256"
        }
      ],
      "name": "mint",
      "outputs": [],
      "stateMutability": "nonpayable",
      "type": "function"
    },
    {
      "inputs": [],
      "name": "name",
      "outputs": [
        {
          "internalType": "string",
          "name": "",
          "type": "string"
        }
      ],
      "stateMutability": "view",
      "type": "function"
    },
    {
      "inputs": [],
      "name": "owner",
      "outputs": [
        {
          "internalType": "address",
          "name": "",
          "type": "address"
        }
      ],
      "stateMutability": "view",
      "type": "function"
    },
    {
      "inputs": [],
      "name": "renounceOwnership",
      "outputs": [],
      "stateMutability": "nonpayable",
      "type": "function"
    },
    {
      "inputs": [],
      "name": "symbol",
      "outputs": [
        {
          "internalType": "string",
          "name": "",
          "type": "string"
        }
      ],
      "stateMutability": "view",
      "type": "function"
    },
    {
      "inputs": [],
      "name": "totalSupply",
      "outputs": [
        {
          "internalType": "uint256",
          "name": "",
          "type": "uint256"
        }
      ],
      "stateMutability": "view",
      "type": "function"
    },
    {
      "inputs": [
        {
          "internalType": "address",
          "name": "to",
          "type": "address"
        },
        {
          "internalType": "uint256",
          "name": "value",
          "type": "uint256"
        }
      ],
      "name": "transfer",
      "outputs": [
        {
          "internalType": "bool",
          "name": "",
          "type": "bool"
        }
      ],
      "stateMutability": "nonpayable",
      "type": "function"
    },
    {
      "inputs": [
        {
          "internalType": "address",
          "name": "from",
          "type": "address"
        },
        {
          "internalType": "address",
          "name": "to",
          "type": "address"
        },
        {
          "internalType": "uint256",
          "name": "value",
          "type": "uint256"
        }
      ],
      "name": "transferFrom",
      "outputs": [
        {
          "internalType": "bool",
          "name": "",
          "type": "bool"
        }
      ],
      "stateMutability": "nonpayable",
      "type": "function"
    },
    {
      "inputs": [
        {
          "internalType": "address",
          "name": "newOwner",
          "type": "address"
        }
      ],
      "name": "transferOwnership",
      "outputs": [],
      "stateMutability": "nonpayable",
      "type": "function"
    }
  ],
  "bytecode": "0x608060405234801562000010575f80fd5b50336040518060400160405280600f81526020016e29bbb0a937b533b0b9102a37b5b2b760891b8152506040518060400160405280600381526020016214d49560ea1b81525081600390816200006791906200032c565b5060046200007682826200032c565b5050506001600160a01b038116620000a857604051631e4fbdf760e01b81525f60048201526024015b60405180910390fd5b620000b381620000d0565b50620000ca3369d3c21bcecceda100000062000121565b6200041a565b600580546001600160a01b038381166001600160a01b0319831681179093556040519116919082907f8be0079c531659141344cd1fd0a4f28419497f9722a3daafe3b4186f6b6457e0905f90a35050565b6001600160a01b0382166200014c5760405163ec442f0560e01b81525f60048201526024016200009f565b620001595f83836200015d565b5050565b6001600160a01b0383166200018b578060025f8282546200017f9190620003f4565b90915550620001fd9050565b6001600160a01b0383165f9081526020819052604090205481811015620001df5760405163391434e360e21b81526001600160a01b038516600482015260248101829052604481018390526064016200009f565b6001600160a01b0384165f9081526020819052604090209082900390555b6001600160a01b0382166200021b5760028054829003905562000239565b6001600160a01b0382165f9081526020819052604090208054820190555b816001600160a01b0316836001600160a01b03167fddf252ad1be2c89b69c2b068fc378daa952ba7f163c4a11628f55a4df523b3ef836040516200027f91815260200190565b60405180910390a3505050565b634e487b7160e01b5f52604160045260245ffd5b600181811c90821680620002b557607f821691505b602082108103620002d457634e487b7160e01b5f52602260045260245ffd5b50919050565b601f82111562000327575f81815260208120601f850160051c81016020861015620003025750805b601f850160051c820191505b8181101562000323578281556001016200030e565b5050505b505050565b81516001600160401b038111156200034857620003486200028c565b6200036081620003598454620002a0565b84620002da565b602080601f83116001811462000396575f84156200037e5750858301515b5f19600386901b1c1916600185901b17855562000323565b5f85815260208120601f198616915b82811015620003c657888601518255948401946001909101908401620003a5565b5085821015620003e457878501515f19600388901b60f8161c191681555b5050505050600190811b01905550565b808201808211156200041457634e487b7160e01b5f52601160045260245ffd5b92915050565b61096880620004285f395ff3fe608060405234801561000f575f80fd5b50600436106100fb575f3560e01c806370a082311161009357806395d89b411161006357806395d89b411461020b578063a9059cbb14610213578063dd62ed3e14610226578063f2fde38b1461025e575f80fd5b806370a08231146101ad578063715018a6146101d557806379cc6790146101dd5780638da5cb5b146101f0575f80fd5b80632ff2e9dc116100ce5780632ff2e9dc14610165578063313ce5671461017657806340c10f191461018557806342966c681461019a575f80fd5b806306fdde03146100ff578063095ea7b31461011d57806318160ddd1461014057806323b872dd14610152575b5f80fd5b610107610271565b60405161011491906107ac565b60405180910390f35b61013061012b366004610812565b610301565b6040519015158152602001610114565b6002545b604051908152602001610114565b61013061016036600461083a565b61031a565b61014469d3c21bcecceda100000081565b60405160128152602001610114565b610198610193366004610812565b61033d565b005b6101986101a8366004610873565b610353565b6101446101bb36600461088a565b6001600160a01b03165f9081526020819052604090205490565b610198610360565b6101986101eb366004610812565b610373565b6005546040516001600160a01b039091168152602001610114565b610107610388565b610130610221366004610812565b610397565b6101446102343660046108aa565b6001600160a01b039182165f90815260016020908152604080832093909416825291909152205490565b61019861026c36600461088a565b6103a4565b606060038054610280906108db565b80601f01602080910402602001604051908101604052809291908181526020018280546102ac906108db565b80156102f75780601f106102ce576101008083540402835291602001916102f7565b820191905f5260205f20905b8154815290600101906020018083116102da57829003601f168201915b5050505050905090565b5f3361030e8185856103e3565b60019150505b92915050565b5f336103278582856103f5565b610332858585610471565b506001949350505050565b6103456104ce565b61034f82826104fb565b5050565b61035d338261052f565b50565b6103686104ce565b6103715f610563565b565b61037e8233836103f5565b61034f828261052f565b606060048054610280906108db565b5f3361030e818585610471565b6103ac6104ce565b6001600160a01b0381166103da57604051631e4fbdf760e01b81525f60048201526024015b60405180910390fd5b61035d81610563565b6103f083838360016105b4565b505050565b6001600160a01b038381165f908152600160209081526040808320938616835292905220545f1981101561046b578181101561045d57604051637dc7a0d960e11b81526001600160a01b038416600482015260248101829052604481018390526064016103d1565b61046b84848484035f6105b4565b50505050565b6001600160a01b03831661049a57604051634b637e8f60e11b81525f60048201526024016103d1565b6001600160a01b0382166104c35760405163ec442f0560e01b81525f60048201526024016103d1565b6103f0838383610686565b6005546001600160a01b031633146103715760405163118cdaa760e01b81523360048201526024016103d1565b6001600160a01b0382166105245760405163ec442f0560e01b81525f60048201526024016103d1565b61034f5f8383610686565b6001600160a01b03821661055857604051634b637e8f60e11b81525f60048201526024016103d1565b61034f825f83610686565b600580546001600160a01b038381166001600160a01b0319831681179093556040519116919082907f8be0079c531659141344cd1fd0a4f28419497f9722a3daafe3b4186f6b6457e0905f90a35050565b6001600160a01b0384166105dd5760405163e602df0560e01b81525f60048201526024016103d1565b6001600160a01b03831661060657604051634a1406b160e11b81525f60048201526024016103d1565b6001600160a01b038085165f908152600160209081526040808320938716835292905220829055801561046b57826001600160a01b0316846001600160a01b03167f8c5be1e5ebec7d5bd14f71427d1e84f3dd0314c0f7b2291e5b200ac8c7c3b9258460405161067891815260200190565b60405180910390a350505050565b6001600160a01b0383166106b0578060025f8282546106a59190610913565b909155506107209050565b6001600160a01b0383165f90815260208190526040902054818110156107025760405163391434e360e21b81526001600160a01b038516600482015260248101829052604481018390526064016103d1565b6001600160a01b0384165f9081526020819052604090209082900390555b6001600160a01b03821661073c5760028054829003905561075a565b6001600160a01b0382165f9081526020819052604090208054820190555b816001600160a01b0316836001600160a01b03167fddf252ad1be2c89b69c2b068fc378daa952ba7f163c4a11628f55a4df523b3ef8360405161079f91815260200190565b60405180910390a3505050565b5f6020808352835180828501525f5b818110156107d7578581018301518582016040015282016107bb565b505f604082860101526040601f19601f8301168501019250505092915050565b80356001600160a01b038116811461080d575f80fd5b919050565b5f8060408385031215610823575f80fd5b61082c836107f7565b946020939093013593505050565b5f805f6060848603121561084c575f80fd5b610855846107f7565b9250610863602085016107f7565b9150604084013590509250925092565b5f60208284031215610883575f80fd5b5035919050565b5f6020828403121561089a575f80fd5b6108a3826107f7565b9392505050565b5f80604083850312156108bb575f80fd5b6108c4836107f7565b91506108d2602084016107f7565b90509250929050565b600181811c908216806108ef57607f821691505b60208210810361090d57634e487b7160e01b5f52602260045260245ffd5b50919050565b8082018082111561031457634e487b7160e01b5f52601160045260245ffdfea26469706673582212206f3b1388f890034cc0e302e3a52a72081ab830a0428ff6c9cb9f12973dd643ee64736f6c63430008140033",
  "linkReferences": {},
  "deployedLinkReferences": {},
  "immutableReferences": {},
  "inputSourceName": "project/contracts/SwaRojgarToken.sol",
  "buildInfoId": "solc-0_8_20-aecc5419409a405a760129226d544ca07e0d924b"
}